:0800000057CB56CB8CCB54CB3F
:1016800017C016C04CC014C0040309041201100195
:10169000FF000008D01653070B01000000010902EB
:1016A0001200010100803209040000000000000067
:1016B00011241FBECFE5D2E0CDBFDEBF00EB0F93FC
:1016C00007E00F9310E0A0E6B0E0E6EAFFE102C019
:1016D00005900D92A636B107D9F710E0A6E6B0E066
:1016E00001C01D92AB39B107E1F7E5C1A82FB92FB1
:1016F00080E090E041E050EA609530E009C02D9133
:1017000082279795879510F084279527305EC8F338
:101710006F5FA8F30895EADF8D939D930895CF93AB
:10172000CFB7CF93C0915F02C03B21F4C0915E025E
:10173000C73021F0CF91CFBFCF91A1CFCC27C39598
:10174000B39BE9F7B39B0BC0B39B09C0B39B07C026
:10175000B39B05C0B39B03C0B39B01C0D3C00F9222
:10176000DF93C0917B00DD27CC57DF4F012EB39B69
:1017700003C0DF910F90E6CF2F930F931F934F93EA
:101780002FEF4F6F06B303FB20F95F933F9350E0B9
:101790003BE065C016B30126502953FDC89556B3EA
:1017A000012703FB25F92F7306B3B1F0502710274B
:1017B00013FB26F906B22230F0F000C016B3012761
:1017C00003FB27F90126502906B22430E8F54F77AC
:1017D000206816B30000F6CF50274F7D206206B276
:1017E000102F000000C006B300265029102713FB5D
:1017F00026F906B2E2CF4F7B06B3206400C0DACFF1
:1018000001265029187106B269F14E7F2160012F1F
:1018100016B328C0002650294D7F06B22260102F33
:1018200029C0012650294B7F06B22460012F2DC00C
:1018300016B301265029477F2860000006B22EC04B
:101840004F7E06B3206130C0422706B3499300267D
:101850005029102706B24FEF13FB20F9297F16B34A
:1018600079F2187159F10126502906B2012703FBBC
:1018700021F9237F06B371F2002650293150D0F0B0
:1018800006B2102713FB22F9277E16B351F2012668
:101890005029012703FB06B223F92F7C49F20000EF
:1018A00006B3102713FB24F90026502906B22F791E
:1018B00039F270CF10E21ABF002717C03B503195A4
:1018C000C31BD04010E21ABF0881033CF9F00B346F
:1018D000E9F0209179001981110F1213EDCF09362B
:1018E00051F10D3211F0013E39F7009382003F9122
:1018F0005F914F911F910F912F91DF910F90CAB778
:10190000C5FD1DCFCF91CFBFCF91189520918200FB
:10191000222369F310918000112321F5343022F144
:101920003093800020937A0010917B003BE0311BC4
:1019300030937B0019C00091800001309CF40AE5CF
:101940003091600034FD11C000936000CEE6D0E01D
:1019500010C0052710E000C021C0052710E0C89581
:1019600008BB14C03AE501C032ED032EC0E0D0E060
:1019700032E017B31861C39A08B317BB58E120E8E7
:101980004FEF20FF052708BB279517951C3F28F729
:1019900000004552B0F720FF0527279508BB179593
:1019A0001C3FB8F629913A9561F7077E10918100A6
:1019B000110F08BBC250D04011F01093790010E213
:1019C0001ABF086017B3177E402F477E54E05A9520
:1019D000F1F708BB17BB48BB8ACFF8942FEFB0E8EC
:1019E000A0E44AE0B1BF000081EE9CE0B399FECFD5
:1019F000B39BFECF0197B399FDCF97FF03C0BA1BEE
:101A0000819501C0BA0FA69529F4281710F031B7B7
:101A1000282FA1E0415031F731BF0000789408959C
:101A2000F894F201329785E080935700E895789416
:101A300008959C01F2014114510439F490936B0014
:101A400080936A002FE33BEC20C0E430F10539F4C9
:101A500090936D0080936C002FE33BEC1DC086E1FA
:101A6000EC37F80739F420916A0030916B002E535F
:101A70003B4F12C086E1EE37F80739F420916C0035
:101A800030916D002D533B4F07C086E1EA37F807D0
:101A900019F481B7282F30E09FB7F89481E009014D
:101AA00080935700E895112482E0482E512C4E0E69
:101AB0005F1E9FBF0895DF92EF92FF920F931F93D7
:101AC000CF93DF9314BE88E181BD87E081BDDFD174
:101AD000BB9A88E893E1ECE9F1E03197F1F70197DF
:101AE000D1F7BB98AC9A8BB780628BBF7894772480
:101AF0008CE991E00197F1F7A8953324609180007B
:101B00003DEFD32ED60ED7FC01C180917B000CE0B7
:101B100010E0081B11090C571F4F6150C801E6DD8A
:101B20008E5F9F4409F0F0C080917A008D3209F0F9
:101B30009BC088E0D81609F0E7C083EC80936E0064
:101B40008AE58093600010926900D8018C918076BC
:101B500011969C91882329F17724992341F482E6F8
:101B600090E090937F0080937E0024E072C09130DB
:101B700071F481E180935700E895F8014480558025
:101B800081E090E090937D0080937C007AC1963054
:101B900029F410927D0010927C0073C1392E20E050
:101BA00058C0D80112968C9110927700992331F485
:101BB0001092780087E790E022E03FC0953019F45A
:101BC0008093810037C0963029F5F80183818130F8
:101BD00019F48CE896E104C0823041F48EE996E174
:101BE00090937F0080937E0022E110C0833069F4DF
:101BF000D80112968C91882341F488E896E190935D
:101C00007F0080937E0024E001C020E080E4809388
:101C100069001FC0983019F483E890E009C099303A
:101C200019F48093830006C09A3021F487E790E08E
:101C300021E003C087E790E020E090937F0080934D
:101C40007E0007C0D8011696EC9180E88093690069
:101C500008C0F8018781882319F4E681E21708F0AB
:101C6000E22FE093610050C08091690087FF4CC073
:101C700080917C0090917D0081309105C1F4F0E865
:101C80004F16F6E15F0650F4D8018D919C91D1DE9C
:101C9000BEEFDB0E19F00E5F1F4FF1CF842D90E0E9
:101CA0008F739070892B81F525E0322E2BC0892B04
:101CB00049F588EA38D18091670025D18091660086
:101CC00022D1C0E0D0E006C0F801EC0FFD1F8081FA
:101CD0001AD12196ED2CFF24CE15DF05A8F3FFD0F5
:101CE00080916600909167008E0D9F1D9093670014
:101CF00080936600E1E9F0E53197F1F78F7390701A
:101D0000892B11F410926100109280008091600084
:101D100084FF3CC0809161008F3FC1F1182F893052
:101D200008F018E0811B8093610080916E0098E8B4
:101D3000892780936E001123E1F0E0917E00F091FD
:101D40007F008091690086FF09C0912FAFE6B0E067
:101D500084918D9331969150D9F707C0912FAFE6BA
:101D6000B0E081918D939150E1F7F0937F00E09383
:101D70007E008FE690E0612FCEDC612F6C5F6C30CF
:101D800019F08FEF809361006093600094E186B357
:101D9000887131F49150D9F7109281001092790036
:101DA00010E0992309F411E080916800811729F06F
:101DB000112309F412DE10936800C30101963C015F
:101DC0008055934C11F494E0392E232D332009F4DF
:101DD0003DC08AE390E20197F1F72230A9F4F8942C
:101DE000E0E8F6E1E054F04083E080935700E895A6
:101DF0003097C1F74424552410E08FEF9FEF19DE90
:101E00001F5F1830D1F702C0253011F409DE1EC063
:101E10002730E1F400E010E088EA85D0812F73D00C
:101E2000802F71D0C0E0D0E08FEF6DD02196C0340C
:101E3000D105D1F754D084E790E40197F1F7FFE79B
:101E4000003C1F0719F0005C1F4FE6CF24E032165C
:101E500009F04ECEEDE7F6E1E491EF3F09F448CE0C
:101E6000F894BB9A1BBE15BA10925F02EAE7F6E13E
:101E70009491892F81508E3F10F491BF0000FECBCA
:101E8000FFCFD8018C9187FDDDCEEFEFDECEC09A7B
:101E9000C29ABA9AB89A8FEF8FB98AE28DB980EF59
:101EA0008EB9089580919A0008958EB987E08A9539
:101EB000F1F78BE28DB9B29BFECF83E08A95F1F703
:101EC0008BE28DB9769BF2CF87E08A95F1F78FB1DF
:101ED0009FEF9FB9B89A089581E090E00895C09867
:101EE000C29AB29BFECF83E08A95F1F7C09A87E051
:101EF0008A95F1F7759B02C080E0089584E0809395
:101F00009A0081E00895B89AC2988FB980EFCDDF2A
:101F1000B8988EEFCADF982F882319F082E080935B
:101F20009A00892F0895C29AC29BFECF97E09A9596
:101F3000F1F7C09823E0922F9A95F1F7C298922F6B
:101F40009A95F1F7C09A779903C020939A0009C037
:101F5000DADF882319F020E030E005C081E08093CB
:101F60009A0021E030E0C9010895DDDF9C0100976F
:101F700011F021E030E0C90108950F931F93182F4D
:101F8000B898C2981FB880EF90DF082FB89A112335
:101F900011F41FB802C08FEF8FB98EEF86DF802F4C
:061FA0001F910F9108954E
:061FA6005AFF167A400804
:040000030000168063
:00000001FF
